{
  "_format": "hh-sol-artifact-1",
  "contractName": "MyContract",
  "sourceName": "contracts/MyContract.sol",
  "abi": [
    {
      "inputs": [
        {
          "internalType": "address",
          "name": "_tokenErc20",
          "type": "address"
        }
      ],
      "stateMutability": "nonpayable",
      "type": "constructor"
    },
    {
      "anonymous": false,
      "inputs": [
        {
          "indexed": true,
          "internalType": "address",
          "name": "owner",
          "type": "address"
        },
        {
          "indexed": true,
          "internalType": "address",
          "name": "approved",
          "type": "address"
        },
        {
          "indexed": true,
          "internalType": "uint256",
          "name": "tokenId",
          "type": "uint256"
        }
      ],
      "name": "Approval",
      "type": "event"
    },
    {
      "anonymous": false,
      "inputs": [
        {
          "indexed": true,
          "internalType": "address",
          "name": "owner",
          "type": "address"
        },
        {
          "indexed": true,
          "internalType": "address",
          "name": "operator",
          "type": "address"
        },
        {
          "indexed": false,
          "internalType": "bool",
          "name": "approved",
          "type": "bool"
        }
      ],
      "name": "ApprovalForAll",
      "type": "event"
    },
    {
      "anonymous": false,
      "inputs": [
        {
          "indexed": true,
          "internalType": "address",
          "name": "from",
          "type": "address"
        },
        {
          "indexed": true,
          "internalType": "address",
          "name": "to",
          "type": "address"
        },
        {
          "indexed": true,
          "internalType": "uint256",
          "name": "tokenId",
          "type": "uint256"
        }
      ],
      "name": "Transfer",
      "type": "event"
    },
    {
      "inputs": [
        {
          "internalType": "address",
          "name": "to",
          "type": "address"
        },
        {
          "internalType": "uint256",
          "name": "tokenId",
          "type": "uint256"
        }
      ],
      "name": "approve",
      "outputs": [],
      "stateMutability": "nonpayable",
      "type": "function"
    },
    {
      "inputs": [
        {
          "internalType": "address",
          "name": "owner",
          "type": "address"
        }
      ],
      "name": "balanceOf",
      "outputs": [
        {
          "internalType": "uint256",
          "name": "",
          "type": "uint256"
        }
      ],
      "stateMutability": "view",
      "type": "function"
    },
    {
      "inputs": [
        {
          "internalType": "address",
          "name": "account",
          "type": "address"
        }
      ],
      "name": "depositOf",
      "outputs": [
        {
          "internalType": "uint256",
          "name": "",
          "type": "uint256"
        }
      ],
      "stateMutability": "view",
      "type": "function"
    },
    {
      "inputs": [
        {
          "internalType": "uint256",
          "name": "amount",
          "type": "uint256"
        }
      ],
      "name": "depositToken",
      "outputs": [],
      "stateMutability": "nonpayable",
      "type": "function"
    },
    {
      "inputs": [
        {
          "internalType": "uint256",
          "name": "tokenId",
          "type": "uint256"
        }
      ],
      "name": "getApproved",
      "outputs": [
        {
          "internalType": "address",
          "name": "",
          "type": "address"
        }
      ],
      "stateMutability": "view",
      "type": "function"
    },
    {
      "inputs": [
        {
          "internalType": "address",
          "name": "owner",
          "type": "address"
        }
      ],
      "name": "getBalance",
      "outputs": [
        {
          "components": [
            {
              "internalType": "string",
              "name": "name",
              "type": "string"
            },
            {
              "internalType": "string",
              "name": "symbol",
              "type": "string"
            },
            {
              "internalType": "uint256",
              "name": "balance",
              "type": "uint256"
            }
          ],
          "internalType": "struct MyContract.NFTInfo",
          "name": "",
          "type": "tuple"
        }
      ],
      "stateMutability": "view",
      "type": "function"
    },
    {
      "inputs": [
        {
          "internalType": "address",
          "name": "owner",
          "type": "address"
        },
        {
          "internalType": "address",
          "name": "operator",
          "type": "address"
        }
      ],
      "name": "isApprovedForAll",
      "outputs": [
        {
          "internalType": "bool",
          "name": "",
          "type": "bool"
        }
      ],
      "stateMutability": "view",
      "type": "function"
    },
    {
      "inputs": [],
      "name": "name",
      "outputs": [
        {
          "internalType": "string",
          "name": "",
          "type": "string"
        }
      ],
      "stateMutability": "view",
      "type": "function"
    },
    {
      "inputs": [
        {
          "internalType": "uint256",
          "name": "tokenId",
          "type": "uint256"
        }
      ],
      "name": "ownerOf",
      "outputs": [
        {
          "internalType": "address",
          "name": "",
          "type": "address"
        }
      ],
      "stateMutability": "view",
      "type": "function"
    },
    {
      "inputs": [
        {
          "internalType": "address",
          "name": "from",
          "type": "address"
        },
        {
          "internalType": "address",
          "name": "to",
          "type": "address"
        },
        {
          "internalType": "uint256",
          "name": "tokenId",
          "type": "uint256"
        }
      ],
      "name": "safeTransferFrom",
      "outputs": [],
      "stateMutability": "nonpayable",
      "type": "function"
    },
    {
      "inputs": [
        {
          "internalType": "address",
          "name": "from",
          "type": "address"
        },
        {
          "internalType": "address",
          "name": "to",
          "type": "address"
        },
        {
          "internalType": "uint256",
          "name": "tokenId",
          "type": "uint256"
        },
        {
          "internalType": "bytes",
          "name": "data",
          "type": "bytes"
        }
      ],
      "name": "safeTransferFrom",
      "outputs": [],
      "stateMutability": "nonpayable",
      "type": "function"
    },
    {
      "inputs": [
        {
          "internalType": "address",
          "name": "operator",
          "type": "address"
        },
        {
          "internalType": "bool",
          "name": "approved",
          "type": "bool"
        }
      ],
      "name": "setApprovalForAll",
      "outputs": [],
      "stateMutability": "nonpayable",
      "type": "function"
    },
    {
      "inputs": [
        {
          "internalType": "bytes4",
          "name": "interfaceId",
          "type": "bytes4"
        }
      ],
      "name": "supportsInterface",
      "outputs": [
        {
          "internalType": "bool",
          "name": "",
          "type": "bool"
        }
      ],
      "stateMutability": "view",
      "type": "function"
    },
    {
      "inputs": [],
      "name": "symbol",
      "outputs": [
        {
          "internalType": "string",
          "name": "",
          "type": "string"
        }
      ],
      "stateMutability": "view",
      "type": "function"
    },
    {
      "inputs": [],
      "name": "tokenErc20",
      "outputs": [
        {
          "internalType": "contract ITokenERC20",
          "name": "",
          "type": "address"
        }
      ],
      "stateMutability": "view",
      "type": "function"
    },
    {
      "inputs": [
        {
          "internalType": "uint256",
          "name": "tokenId",
          "type": "uint256"
        }
      ],
      "name": "tokenURI",
      "outputs": [
        {
          "internalType": "string",
          "name": "",
          "type": "string"
        }
      ],
      "stateMutability": "view",
      "type": "function"
    },
    {
      "inputs": [
        {
          "internalType": "address",
          "name": "from",
          "type": "address"
        },
        {
          "internalType": "address",
          "name": "to",
          "type": "address"
        },
        {
          "internalType": "uint256",
          "name": "tokenId",
          "type": "uint256"
        }
      ],
      "name": "transferFrom",
      "outputs": [],
      "stateMutability": "nonpayable",
      "type": "function"
    }
  ],
  "bytecode": "0x608080604052346200045e57806200191c803803809162000021828562000463565b83396020928391810103126200045e57516001600160a01b038116908190036200045e5760405160065492906000816200005b8662000487565b918282526001968588821691826000146200043f575050600114620003fa575b620000899250038262000463565b60405193600085600754916200009f8362000487565b92838352868582169182600014620003db57505060011462000396575b620000ca9250038662000463565b81516001600160401b0390818111620002d95780620000eb60005462000487565b94601f9586811162000364575b508690868311600114620002fb57600092620002ef575b5050600019600383901b1c191690831b176000555b8551908111620002d9576200013a825462000487565b8381116200029c575b5083838211600114620002355781929394959660009262000229575b5050600019600383901b1c191690821b1790555b6200018060065462000487565b81811162000205575b50600a64135e53919560da1b01600655600754620001a79062000487565b90808211620001e1575b6008631353919560e21b01600755600880546001600160a01b0319168517905560405161143e9081620004de8239f35b620001fc926007600052600020910160051c810190620004c4565b388080620001b1565b620002229060066000528284600020910160051c810190620004c4565b3862000189565b0151905038806200015f565b601f1982169083600052856000209160005b81811062000286575097838596979899106200026c575b505050811b01905562000173565b015160001960f88460031b161c191690553880806200025e565b8983015184559285019291870191870162000247565b620002c89083600052856000208580850160051c820192888610620002cf575b0160051c0190620004c4565b3862000143565b92508192620002bc565b634e487b7160e01b600052604160045260246000fd5b0151905038806200010f565b90859350601f1983169160008052886000209260005b8a8282106200034d575050841162000333575b505050811b0160005562000124565b015160001960f88460031b161c1916905538808062000324565b838501518655899790950194938401930162000311565b6200038f9060008052886000208880860160051c8201928b8710620002cf570160051c0190620004c4565b38620000f8565b50506007600052858480600020846000915b858310620003c1575050620000ca9350820101620000bc565b80919294505483858c0101520191018590848993620003a8565b60ff191684820152620000ca94151560051b8401019150620000bc9050565b50506006600052818380600020876000915b858310620004255750506200008993508201016200007b565b80919294505483858801015201910184908785936200040c565b60ff1916848201526200008994151560051b84010191506200007b9050565b600080fd5b601f909101601f19168101906001600160401b03821190821017620002d957604052565b90600182811c92168015620004b9575b6020831014620004a357565b634e487b7160e01b600052602260045260246000fd5b91607f169162000497565b818110620004d0575050565b60008155600101620004c456fe60806040908082526004918236101561001757600080fd5b600091823560e01c90816301ffc9a714610c955750806306fdde0314610be8578063081812fc14610bc8578063095ea7b314610a5a57806323b872dd14610a3557806323e3fbd5146109fe57806342842e0e146109a25780635baf3e8d1461097a5780636215be77146106725780636352211e1461064157806370a082311461061557806395d89b411461051d578063a22cb46514610451578063b88d4fde1461039a578063c87b56dd14610342578063e985e9c5146102f55763f8b2cb4f146100e057600080fd5b346102f157602090816003193601126102ed5761011c6100fe610d41565b8483805161010b81610da7565b606081526060878201520152610e31565b9181519361012985610da7565b8251958196600654600198818a1c918a811680156102e3575b87841081146102d057838552849291889082156102b3575050600114610275575b61016f92500382610df3565b86528351968260075480831c9383821690811561026b575b87861082146102585750848b5290811561023657506001146101ff575b505050916101e186926101be6060986101f4960385610df3565b808701938452828701958652825197889782895251918801526080870190610d01565b915190601f198684030190860152610d01565b905160608301520390f35b9250600783528383205b82841061022357505050850181016101e1826101be6101a4565b8054898501860152928401928101610209565b60ff19168a870152505050151560051b8601820190506101e1826101be6101a4565b634e487b7160e01b845260229052602483fd5b94607f1694610187565b50506006845281858086208b87915b85831061029a57505061016f9350820101610163565b80919294505483858801015201910186908b8593610284565b60ff19168482015261016f94151560051b84010191506101639050565b634e487b7160e01b875260228652602487fd5b92607f1692610142565b8280fd5b5080fd5b50346102f157806003193601126102f15760ff81602093610314610d41565b61031c610d5c565b6001600160a01b0391821683526005875283832091168252855220549151911615158152f35b50346102f15760203660031901126102f15761036961036461039694356111d9565b610ea8565b81815161037581610dd8565b5280519161038283610dd8565b825251918291602083526020830190610d01565b0390f35b508290346102ed5760803660031901126102ed576103b6610d41565b906103bf610d5c565b6064359360443591906001600160401b03861161044d573660238701121561044d57850135936103fa6103f186610e16565b94519485610df3565b84845286366024878901011161044a576020866104429760246104479a01838901378601015261043261042d8433611015565b610f3c565b61043d8383836110dd565b611312565b610ff1565b80f35b80fd5b8680fd5b508290346102ed57806003193601126102ed5761046c610d41565b9060243591821515809303610519576001600160a01b0316923384146104db5750338452600560205280842083855260205280842060ff1981541660ff8416179055519081527f17307eab39ab6107e8899845ad3d59bd9653f200f220920489ca2b5937696c3160203392a380f35b6020606492519162461bcd60e51b8352820152601960248201527822a9219b99189d1030b8383937bb32903a379031b0b63632b960391b6044820152fd5b8480fd5b50903461044a578060031936011261044a578151918160019283549384811c9181861695861561060b575b60209687851081146105f8578899509688969785829a5291826000146105d1575050600114610594575b5050506103969291610585910385610df3565b51928284938452830190610d01565b91908693508083528383205b8284106105b95750505082010181610585610396610572565b8054848a0186015288955087949093019281016105a0565b60ff19168782015293151560051b8601909301935084925061058591506103969050610572565b634e487b7160e01b835260228a52602483fd5b92607f1692610548565b50346102f15760203660031901126102f15760209061063a610635610d41565b610e31565b9051908152f35b50903461044a57602036600319011261044a575061066160209235610eef565b90516001600160a01b039091168152f35b5082346102ed57602091826003193601126109765781359283156109355760018060a01b0380600854169483516323b872dd60e01b8152338682015283816064818b60249b308d8401528760448401525af190811561092b5788916108f1575b50156108bd57338752600a835283872080549182018092116108ab57556106f833610e31565b1590816107fc575b50610709578480f35b60095492600184018094116107ea578360095582519461072886610dd8565b86865233156107ab575050916107a3939160026104429461075161074b856111d9565b1561139d565b61075d61074b856111d9565b33808952600382528389208054600101905584895291905290862080546001600160a01b031916821790558190866000805160206113e98339815191528180a4336111f6565b818080808480f35b916064928185519362461bcd60e51b85528401528201527f4552433732313a206d696e7420746f20746865207a65726f20616464726573736044820152fd5b634e487b7160e01b8652601190528385fd5b9050338652600a8252838284882054926008541685519283809263313ce56760e01b82525afa80156108a1578790610869575b60ff915016604d811161085757600a0a90612710918083029283040361085757101586610700565b634e487b7160e01b8752601185528587fd5b508281813d831161089a575b61087f8183610df3565b8101031261044d575160ff8116810361044d5760ff9061082f565b503d610875565b84513d89823e3d90fd5b634e487b7160e01b8852601186528688fd5b835162461bcd60e51b8152808601849052600f818801526e151c985b9cd9995c8819985a5b1959608a1b6044820152606490fd5b90508381813d8311610924575b6109088183610df3565b810103126109205751801515810361092057886106d2565b8780fd5b503d6108fe565b85513d8a823e3d90fd5b905162461bcd60e51b815291820152601d60248201527f416d6f756e74206d7573742062652067726561746572207468616e20300000006044820152606490fd5b8380fd5b50346102f157816003193601126102f15760085490516001600160a01b039091168152602090f35b50346102f1576109b136610d72565b83519390929060208501906001600160401b038211868310176109eb579161044795939161044295935286845261043261042d8433611015565b634e487b7160e01b875260418852602487fd5b50346102f15760203660031901126102f15760209181906001600160a01b03610a25610d41565b168152600a845220549051908152f35b823461044a57610447610a4736610d72565b91610a5561042d8433611015565b6110dd565b5082346102ed57816003193601126102ed57610a74610d41565b6024359290916001600160a01b0391908280610a8f87610eef565b16941693808514610b7b57803314908115610b5c575b5015610af457848652602052842080546001600160a01b03191683179055610acc83610eef565b167f8c5be1e5ebec7d5bd14f71427d1e84f3dd0314c0f7b2291e5b200ac8c7c3b9258480a480f35b6020608492519162461bcd60e51b8352820152603d60248201527f4552433732313a20617070726f76652063616c6c6572206973206e6f7420746f60448201527f6b656e206f776e6572206f7220617070726f76656420666f7220616c6c0000006064820152fd5b90508652600560205281862033875260205260ff828720541687610aa5565b506020608492519162461bcd60e51b8352820152602160248201527f4552433732313a20617070726f76616c20746f2063757272656e74206f776e656044820152603960f91b6064820152fd5b50903461044a57602036600319011261044a575061066160209235610f15565b50903461044a578060031936011261044a5781519181825492600184811c91818616958615610c8b575b60209687851081146105f8578899509688969785829a5291826000146105d1575050600114610c4e575050506103969291610585910385610df3565b91908693508280528383205b828410610c735750505082010181610585610396610572565b8054848a018601528895508794909301928101610c5a565b92607f1692610c12565b839085346102ed5760203660031901126102ed573563ffffffff60e01b81168091036102ed57602092506380ac58cd60e01b8114908115610cf0575b8115610cdf575b5015158152f35b6301ffc9a760e01b14905083610cd8565b635b5e139f60e01b81149150610cd1565b919082519283825260005b848110610d2d575050826000602080949584010152601f8019910116010190565b602081830181015184830182015201610d0c565b600435906001600160a01b0382168203610d5757565b600080fd5b602435906001600160a01b0382168203610d5757565b6060906003190112610d57576001600160a01b03906004358281168103610d5757916024359081168103610d57579060443590565b606081019081106001600160401b03821117610dc257604052565b634e487b7160e01b600052604160045260246000fd5b602081019081106001600160401b03821117610dc257604052565b601f909101601f19168101906001600160401b03821190821017610dc257604052565b6001600160401b038111610dc257601f01601f191660200190565b6001600160a01b03168015610e5157600052600360205260406000205490565b60405162461bcd60e51b815260206004820152602960248201527f4552433732313a2061646472657373207a65726f206973206e6f7420612076616044820152683634b21037bbb732b960b91b6064820152608490fd5b15610eaf57565b60405162461bcd60e51b8152602060048201526018602482015277115490cdcc8c4e881a5b9d985b1a59081d1bdad95b88125160421b6044820152606490fd5b6000908152600260205260409020546001600160a01b0316610f12811515610ea8565b90565b610f21610364826111d9565b6000908152600460205260409020546001600160a01b031690565b15610f4357565b60405162461bcd60e51b815260206004820152602d60248201527f4552433732313a2063616c6c6572206973206e6f7420746f6b656e206f776e6560448201526c1c881bdc88185c1c1c9bdd9959609a1b6064820152608490fd5b60809060208152603260208201527f4552433732313a207472616e7366657220746f206e6f6e20455243373231526560408201527131b2b4bb32b91034b6b83632b6b2b73a32b960711b60608201520190565b15610ff857565b60405162461bcd60e51b81528061101160048201610f9e565b0390fd5b906001600160a01b03808061102984610eef565b1693169183831493841561105c575b508315611046575b50505090565b61105291929350610f15565b1614388080611040565b909350600052600560205260406000208260005260205260ff604060002054169238611038565b1561108a57565b60405162461bcd60e51b815260206004820152602560248201527f4552433732313a207472616e736665722066726f6d20696e636f72726563742060448201526437bbb732b960d91b6064820152608490fd5b90611105916110eb84610eef565b6001600160a01b0393918416928492909183168414611083565b1691821561118857816111229161111b86610eef565b1614611083565b6000805160206113e9833981519152600084815260046020526040812060018060a01b03199081815416905583825260036020526040822060001981540190558482526040822060018154019055858252600260205284604083209182541617905580a4565b60405162461bcd60e51b8152602060048201526024808201527f4552433732313a207472616e7366657220746f20746865207a65726f206164646044820152637265737360e01b6064820152608490fd5b6000908152600260205260409020546001600160a01b0316151590565b9192600092909190803b1561130857611244946040518092630a85bd0160e11b9485835233600484015287602484015260448301526080606483015281878160209a8b966084830190610d01565b03926001600160a01b03165af18491816112c8575b506112b7575050503d6000146112af573d61127381610e16565b906112816040519283610df3565b81528091833d92013e5b805191826112ac5760405162461bcd60e51b81528061101160048201610f9e565b01fd5b50606061128b565b6001600160e01b0319161492509050565b9091508581813d8311611301575b6112e08183610df3565b8101031261051957516001600160e01b031981168103610519579038611259565b503d6112d6565b5050915050600190565b9293600093909291803b156113925794849161136c9660405180948193630a85bd0160e11b9788845233600485015260018060a01b0380921660248501526044840152608060648401528260209b8c976084830190610d01565b0393165af18491816112c857506112b7575050503d6000146112af573d61127381610e16565b505050915050600190565b156113a457565b60405162461bcd60e51b815260206004820152601c60248201527b115490cdcc8c4e881d1bdad95b88185b1c9958591e481b5a5b9d195960221b6044820152606490fdfeddf252ad1be2c89b69c2b068fc378daa952ba7f163c4a11628f55a4df523b3efa2646970667358221220f9177583b1953890c2bb0511856e493326caab3b7ea222ad02ab31c73451fc8264736f6c63430008110033",
  "linkReferences": {},
  "deployedLinkReferences": {}
}